:020000040800F2
:10000000B00400200501000875110008C50F0008A4
:100010007111000891080008811F0008000000000D
:100020000000000000000000000000007D14000837
:10003000950B00080000000051130008411600084D
:100040001F0100081F0100081F0100081F01000810
:100050001F0100081F0100081F0100081F01000800
:100060001F0100081F0100081F0100081F010008F0
:100070001F0100081F0100081F0100081F010008E0
:100080001F0100081F0100081F0100081F010008D0
:100090001F0100081F0100081F0100089D0C000837
:1000A0001F0100081F0100081F0100081F010008B0
:1000B000A51600081F0100081F0100081F01000805
:1000C0001F0100081F0100081F0100081F01000890
:1000D0001F010008011B00081F010008391B000850
:1000E000150C00081F0100081F010008DFF810D0E0
:1000F00000F008FB0048004761280008AFF30080CB
:10010000B00400200648804706480047FEE7FEE7A7
:10011000FEE7FEE7FEE7FEE7FEE7FEE7FEE7FEE7B7
:1001200045160008ED00000810B5002200E0521C42
:10013000835C8C5CA34201D1002BF8D1D8B2E1B230
:10014000401A10BD2DE9F04D81EA030404F0004B84
:1001500021F0004514464FF0000A23F0004150EA18
:10016000050220D054EA01021DD0C5F30A57024609
:10017000C5F31303C1F31300C1F30A5640F480150D
:1001800043F48013A7EB0608101BD64608F2FD388F
:1001900073EB050002D308F1010801E092185B41FE
:1001A000B8F1000F03DA00200146BDE8F08D002011
:1001B0004FF48011064684460EE0171B73EB0507CB
:1001C00005D3121B63EB050306434CEA010C4908F7
:1001D0004FEA300092185B4150EA0107EDD152EA34
:1001E000030012D082EA040083EA0501084305D027
:1001F000101BAB4106D20122002306E000224FF083
:10020000004302E06FF0010253101AEB06004CEBC2
:10021000085110EB0A0041EB0B01BDE8F04D00F076
:10022000CBB896230022114600F098B800F00042A7
:1002300020F00040C10DC0F3160040F400007F29FB
:1002400001DA00207047962903DCC1F19601C8400D
:1002500001E096398840002AF4D04042704700F00F
:10026000004230F000400AD0C10D01F56071C0F3CA
:10027000160042EA0151C2084007114370470020AE
:100280000146704701F0004330B421F0004150EACC
:10029000010206D00A0DA2F56072C1F31301002A13
:1002A00002DC30BC00207047440F44EAC104C100A6
:1002B000E01830BC00EBC25000F047B830B50B4638
:1002C000014600202022012409E021FA02F59D4286
:1002D00005D303FA02F5491B04FA02F52844151E5A
:1002E000A2F10102F1DC30BD2DE9F05F05460020EE
:1002F00092469B4688460646814640241BE0284697
:1003000041464746224600F01EFA53465A46C01A56
:10031000914110D311461846224600F005FA2D1AD5
:1003200067EB01084F4622460120002100F0FCF94E
:1003300017EB00094E41201EA4F10104DFDC484602
:1003400031462A464346BDE8F09F0029A8BF7047C2
:10035000401C490008BF20F00100704710B4B0FAFB
:1003600080FC00FA0CF050EA010404BF10BC704796
:1003700049B1CCF1200421FA04F411FA0CF118BFB0
:10038000012121430843A3EB0C01CB1D4FEA00617F
:100390004FEA102042BF002010BC704700EBC35052
:1003A00010440029A4BF10BC7047401C490008BF7E
:1003B00020F0010010BC704710B5141E73F100044A
:1003C00008DA401C41F1000192185B411A4301D147
:1003D00020F0010010BD2DE9F04D92469B4611B171
:1003E000B1FA81F202E0B0FA80F22032904600F0D9
:1003F0009BF904460F4640EA0A0041EA0B015346C6
:100400005A46084313D0114653EA010019D0C8F1E7
:100410004002504600F097F905460E4650465946B0
:10042000424600F081F9084305D0012004E020464F
:100430003946BDE8F08D0020054346EAE0762C43BE
:1004400037430A986305E40AA0EB08000022FD0A7E
:1004500044EA47540A3002D500200146E9E7010585
:1004600010196941DDE9084500196941BDE8F04D01
:10047000A2E72DE9FE4F804681EA0300C00F0C463B
:10048000009021F0004123F00045B8EB0200A941A3
:1004900005D24046214690461C460B46024623F0B4
:1004A0000040104347D0270DC7F30A00C3F30A5199
:1004B0000290401A019040286BDAC3F3130040F415
:1004C000801B0098924620B10023D2EB030A63EB15
:1004D0000B0B01985946C0F14002504600F024F938
:1004E00006460D4650465946019A00F03CF910EB7D
:1004F00008006141002487EA115284EAE7731A4335
:1005000040D0009A62B3019A012A4FEA075215DCE3
:10051000001B61EB02014FF0004202EA0752CDE9F5
:100520000042001C41F5801132462B46FFF753FF75
:1005300003B0BDE8F08F40462146F9E7001B61EBB0
:100540000201001C41F5801300185B412018A2F540
:10055000001747EB030140EAD570B6196D4111E071
:100560006D084FEA360645EAC0754FEA0752001B90
:1005700061EB0201001C41F5801149084FEA30008F
:100580000019514132462B4603B0BDE8F04FFFF74A
:1005900013BF0098012240000023D0EB020263EB5E
:1005A000E073009821464FEAE074B8EB000061EB7D
:1005B0000401E9E783F000435BE781F0004158E77D
:1005C0002DE9FE4F81EA030404F0004421F00041CC
:1005D00000944FF0000B23F0004350EA01045ED07A
:1005E00052EA03045BD0C3F30A54C1F30A552C4406
:1005F000A4F2F3340194A0FB0254C1F3130141F4BB
:100600008011C3F3130343F4801301FB024400FB86
:10061000034E840A970A44EA815447EA8357A4FBAD
:10062000076802958D0A05FB07854FEA932C04FBAA
:100630000C542705029D4FEA065847EA1637B5EBDA
:1006400008056EEB070C870E920E47EA811742EA07
:100650008312A7FB0201B6EB0B0164EB00042B0D28
:1006600043EA0C335E1844EB1C50DA465146E7FB74
:100670000201C5F313044FEA0B3343EA14534FEA64
:100680000432019C43EA0603A4F10C040294009C8A
:10069000CDE900B4FFF79FFE03B0BDE8F08F002066
:1006A0000146F9E7C1F30A52C1F3130140F2FF33E7
:1006B00041F480119A4202DA00200146704740F26C
:1006C00033439A42A2F2334202DC524200F03BB87A
:1006D00000F02AB830B5041E71F1000404DB4FF0BD
:1006E0000044404264EB0101141E73F1000405DB79
:1006F0001C464FF00043524263EB0403994208BF8B
:10070000904230BD064C074D06E0E06840F0010322
:1007100094E8070098471034AC42F6D3FFF7EAFCA0
:100720007029000890290008202A04DB203A00FAEA
:1007300002F1002070479140C2F1200320FA03F338
:10074000194390407047202A04DB203A21FA02F036
:100750000021704721FA02F3D040C2F120029140FB
:10076000084319467047202A06DBCB17203A41FA86
:1007700002F043EAE07306E041FA02F3D040C2F12E
:1007800020029140084319467047000010B52A48DE
:1007900090F8640000284ED00020274981F86400BA
:1007A00026A12548FFF7C0FC38B925A001F0EAFBD7
:1007B0000021462000F0DDF83DE025A11E48FFF7AE
:1007C000B3FC38B923A001F0DDFB0021462000F086
:1007D00087F830E022A11848FFF7A6FC38B921A01D
:1007E00001F0D0FB0021462000F09DF823E020A17D
:1007F0001148FFF799FC38B91EA001F0C3FB002196
:10080000462000F0A3F816E01DA10B48FFF78CFC72
:1008100030B91CA001F0B6FB002000F074F80AE02B
:100820001AA10548FFF780FC28B916A001F0AAFB21
:10083000002000F068F810BD440000204F4E410039
:10084000676F20666F7277617264210D0A00000085
:100850004F4E4200676F206261636B210D0A0000FA
:100860004F4E4300676F206C656674210D0A0000CF
:100870004F4E4400676F207269676874210D0A004B
:100880004F4E460053746F70210D0A004F4E4500C5
:1008900000BFFEE708B50121082000F06BFD102025
:1008A0008DF803000120ADF8000003208DF8020050
:1008B0006946024800F0D0FA08BD0000000C014073
:1008C00010B50121014800F05BFB10BD000C014098
:1008D00010B50121014800F055FB10BD000C01408E
:1008E00070B504460D46642C00DD6424002C00DA4B
:1008F0000024E3B2E1B20022104600F04DF8284691
:1009000000F049F970BD10B5044600231A46194697
:10091000184600F041F8204600F03DF910BD10B532
:1009200000F06CFC10BD70B504460D46642C00DD73
:100930006424002C00DA0024E2B200231946184691
:1009400000F02AF8284600F026F970BD70B504467C
:100950000D46642C00DD6424002C00DA0024E0B293
:1009600000231A46194600F017F8284600F013F93C
:1009700070BD70B504460D46642C00DD6424002C67
:1009800000DA0024E2B2E0B20023194600F004F8D5
:10099000284600F000F970BD2DE9F04104460F46ED
:1009A00015461E462146084801F021F839460648FA
:1009B00001F01FF82946044801F01DF831460248AD
:1009C00001F01BF8BDE8F0810008004070B5044656
:1009D0000D46642C00DD6424002C00DA0024E2B211
:1009E000E1B200231846FFF7D7FF284600F0D3F8FE
:1009F00070BD70B504460D46642C00DD6424002CE7
:100A000000DA0024E3B2E0B200221146FFF7C4FF8F
:100A1000284600F0C0F870BD10B500F09FFB38B953
:100A200000F022FD20B932214620FFF7A2FF23E08B
:100A300000F094FB012807D100F016FD20B9322107
:100A40004620FFF770FF17E000F088FB40B900F088
:100A50000BFD012804D132214620FFF777FF0BE080
:100A600000F07CFB012807D100F0FEFC012803D137
:100A70004FF4C870FFF747FF10BD000038B5384885
:100A80000078012828D100203549087035480168D0
:100A900035A001F077FA33480088C0F3072400201E
:100AA000304908602046E11704EB117109118DF8F7
:100AB0000010E11704EB11710911A4EB0111C9B287
:100AC0008DF801109DF800102CA001F05BFA9DF844
:100AD00001102DA001F056FA9DF80000012808D160
:100AE0009DF80100082804D10A214620FFF741FFA4
:100AF00034E09DF80000042808D19DF801000A2880
:100B000004D10A214620FFF7EBFE27E09DF8000004
:100B1000012807D19DF8010020B90A214620FFF7DE
:100B200055FF1BE09DF80000052808D19DF8010045
:100B30000A2804D10A214620FFF75BFF0EE09DF84A
:100B40000000032807D19DF80100082803D10020E8
:100B5000FFF7D9FE02E00020FFF7D5FE38BD000008
:100B60003400002030000020BAECCDE2BDD3CAD55D
:100B7000C2EB2025302E38580D0A00006275665BE6
:100B8000305D3A25640D0A006275665B315D3A2579
:100B9000640D0A00704700B5034603E04FF47A7015
:100BA00000F005F8181EA3F10103F7D100BD00EB1A
:100BB000C001C9004FF0E02251610021916105217F
:100BC000116100BF4FF0E021096901F48031002973
:100BD000F8D004214FF0E0221161704770B505464E
:100BE0000948465D00240BE046FA04F000F00102DB
:100BF000064830F81410064800F0C6F9601CC4B26C
:100C0000082CF1DB70BD0000140000201E00002045
:100C1000000801402DE9F0470A20FFF7C8FF4FF414
:100C2000804000F09BF878B300214FF0804000F046
:100C3000E7FE0020154908700121880700F053FDE8
:100C400000BF4FF48041124800F091F90028F8D11C
:100C500000214FF0804000F046FD00F09BF98046F7
:100C60004046FFF7DEFA8146FFF7F9FA0646002212
:100C7000084BFFF767FA0446FFF704FB06490860D4
:100C80004FF4804000F064F8BDE8F0873C0000209D
:100C9000000C014000004D40380000202DE9F041DB
:100CA0000024002600253AE04FF48071204800F02F
:100CB0005EF9012831D100F087F90446FA2C00DBF7
:100CC0002EE0C82C03DDFA2C01DA01260AE03C2CC8
:100CD00003DD5A2C01DA012704E00A2C02DD322C54
:100CE00000DA0027012E16D1124800684000114991
:100CF00008600846006838440860202D0BDB084671
:100D000001680DA001F03EF901200D4908700DA009
:100D100001F038F904E0681CC5B2FFF7AFFEC3E785
:100D200000BF4FF4807000F013F8BDE8F0810000C0
:100D3000000801403000002025302E38580D0A00F0
:100D400034000020464646464646460A000000005B
:100D5000014908607047000014040140014600206A
:100D60000022074B1B6803EA0102054B14331B6882
:100D70000B4013B10AB1012000E0002070470000D1
:100D800000040140002123498279002A3AD00A4612
:100D9000126803689A430B461A600A1D12680368BA
:100DA0009A430B1D1A60027911440A6803681A43BA
:100DB0000A60184A0832126803689A43154B0833D0
:100DC0001A601A1D126803689A43124B0C331A609A
:100DD0004279102A0ED11A1F126803681A430D4B6C
:100DE00008331A601A1D126803681A43094B0C3342
:100DF0001A600DE00749427911440A6803681A43F2
:100E00000A6005E0027911440A6803689A430A609F
:100E1000704700000004014030B500228B071C0F12
:100E20000F2303FA04F20B4B8C1053F82430934336
:100E3000084C8D1044F8253023468C1053F824308C
:100E40008C07240F00FA04F42343024C8D1044F85D
:100E5000253030BD080001402DE9F0410246002553
:100E60000026002000230024002791F803C00CF086
:100E70000F0591F803C00CF0100CBCF1000F03D06B
:100E800091F802C04CEA050591F800C0BCF1000FD2
:100E900031D0146800202BE04FF0010C0CFA00F365
:100EA000B1F800C00CEA03069E4220D183004FF047
:100EB0000F0C0CFA03F7BC4305FA03FC4CEA0404DC
:100EC00091F803C0BCF1280F06D14FF0010C0CFAC9
:100ED00000FCC2F814C00AE091F803C0BCF1480F4E
:100EE00005D14FF0010C0CFA00FCC2F810C0401CF8
:100EF0000828D1D31460B1F800C0BCF1FF0F34DD75
:100F0000546800202EE000F1080C4FF0010808FAA8
:100F10000CF3B1F800C00CEA03069E4221D1830015
:100F20004FF00F0C0CFA03F7BC4305FA03FC4CEA34
:100F3000040491F803C0BCF1280F05D100F1080C9E
:100F400008FA0CF8C2F8148091F803C0BCF1480FFD
:100F500007D100F1080C4FF0010808FA0CF8C2F8AC
:100F60001080401C0828CED35460BDE8F0810246B2
:100F7000002093680B400BB1012000E00020704777
:100F800041617047016170470AB1016100E0416150
:100F90007047000010B500BF094800784FF47A711F
:100FA00000FB01F4C80600F0AAFB044400204FF047
:100FB000804188843220FFF7EEFD204610BD0000FE
:100FC0003C00002000BFFEE710B5002408E0601CD4
:100FD000C4B21420FFF7EBFDFA2C01DB204610BD54
:100FE0004FF480710348FFF7C2FF0128EFD020467D
:100FF000F5E70000000801401FB50121052000F0C1
:10100000B9F94FF48070ADF80C0048208DF80F004E
:1010100003A91548FFF720FF08210020FFF7FCFE79
:101020004FF48070FFF794FE4FF480700190012020
:101030008DF80A0000208DF808000C208DF80900BA
:1010400001A8FFF79FFE17208DF8000001208DF802
:10105000030000208DF8010001208DF80200684691
:1010600000F08AF81FBD00000008014008B501210A
:10107000042000F07FF94FF4C050ADF80000482084
:101080008DF8030003208DF8020069460148FFF740
:10109000E3FE08BD0008014008B50121082000F06A
:1010A00069F948208DF803004FF44050ADF8000076
:1010B00003208DF8020069460148FFF7CDFE08BD08
:1010C000000C014010B500244FF400410A48FFF71E
:1010D0004EFF70B91420FFF75EFD00BF4FF40041D2
:1010E0000548FFF744FF0028F8D01420FFF753FD10
:1010F0000124204610BD00000008014008B5012170
:10110000042000F037F94FF40040ADF8000048200B
:101110008DF8030003208DF8020069460148FFF7AF
:101120009BFE08BD0008014008B50121042000F025
:1011300021F9FF20ADF8000010208DF803000320F6
:101140008DF8020069460448FFF786FEFF21024839
:10115000FFF718FF08BD00000008014010B54FF46C
:1011600000510248FFF703FF10BD0000000C0140D2
:1011700000BFFEE77047000070B5002100230F227A
:10118000C47804B3154C246804F4E064C4F5E06446
:10119000210AC1F10403CA40447804FA03F18478B7
:1011A0001440214309010E4C0678A155047804F03F
:1011B0001F050124AC4005786D11AD0005F1E02557
:1011C000C5F8004109E0047804F01F050124AC4093
:1011D000044D0678761145F8264070BD0CED00E010
:1011E00000E400E080E100E002490143024A1160AE
:1011F000704700000000FA050CED00E000B589B072
:101200000121042000F0A6F80121082000F0B2F826
:101210004020ADF8200018208DF8230003208DF821
:10122000220008A94848FFF717FE8020ADF82000EB
:1012300018208DF8230003208DF8220008A94248C9
:10124000FFF70AFE4FF48070ADF8200018208DF8EB
:10125000230003208DF8220008A93B48FFF7FCFD7E
:101260004FF40070ADF8200018208DF82300032003
:101270008DF8220008A93448FFF7EEFD6320ADF891
:1012800018002320ADF814000020ADF81600ADF8CA
:101290001A0005A92D4800F0B5FB6020ADF8040048
:1012A0000120ADF806000020ADF80A00ADF80C00F2
:1012B00001A9264800F040FA6020ADF804000120A2
:1012C000ADF806000020ADF80A00ADF80C0001A949
:1012D0001E4800F087FA6020ADF804000120ADF848
:1012E00006000020ADF80A00ADF80C0001A917486F
:1012F00000F0D8FA6020ADF804000120ADF8060037
:101300000020ADF80A00ADF80C0001A90F4800F06C
:1013100023FB08210D4800F05BFA08210B4800F080
:10132000B3FA0821094800F00DFB0821074800F036
:1013300051FB0121054800F0C7F90121034800F0E5
:10134000D2F909B000BD0000000C014000080040C7
:101350007047000029B1064AD2690243044BDA61A2
:1013600004E0034AD2698243014BDA61704700000E
:101370000010024029B1064A92690243044B9A6167
:1013800004E0034A92698243014B9A61704700006E
:101390000010024030B500210022002400232D4D12
:1013A0006D6805F00C0121B1042905D0082923D16D
:1013B00005E0294D056022E0274D05601FE0254D21
:1013C0006D6805F47012234D6D6805F480340225B4
:1013D00005EB92421CB9214D554305600BE01D4DB4
:1013E0006D6805F400351DB11C4D5543056002E0E4
:1013F000194D5543056002E0174D056000BF00BF61
:10140000144D6D6805F0F0010909154D6B5C056818
:10141000DD4045600F4D6D6805F4E061090A104D2F
:101420006B5C4568DD4085600A4D6D6805F4605170
:10143000C90A0B4D6B5C4568DD40C560054D6D68A4
:1014400005F44041890B074D6B5CC568B5FBF3F5AE
:10145000056130BD0010024000127A0000093D0015
:10146000000000201000002010B54FF48051024809
:10147000FFF77DFD10BD0000000C0140704700002B
:1014800000B587B001218803FFF774FF0121042014
:10149000FFF770FF18208DF81B004FF40070ADF8B7
:1014A000180003208DF81A0006A92148FFF7D4FC84
:1014B00048208DF81B004FF48060ADF81800032021
:1014C0008DF81A0006A91A48FFF7C6FC4FF416500B
:1014D00002900020ADF814000C20ADF8120000209E
:1014E000ADF81000ADF80E00ADF80C0002A91148DF
:1014F00000F030FC012240F225510E4800F004FCBF
:101500004FF4A060FFF770FE25208DF80400012045
:101510008DF807008DF805008DF8060001A8FFF78B
:101520002BFE0121034800F0ACFB07B000BD00001A
:10153000000801400038014010B504462146054826
:1015400000F079FC00BF8021024800F0A6FB0028D3
:10155000F9D010BD0038014010B500F001F810BD01
:101560000CB50020019000903348006840F48030B2
:101570003149086000BF3048006800F40030009036
:101580000198401C0190009818B90198B0F5A06F1F
:10159000F1D12948006800F4003010B1012000901A
:1015A00001E0002000900098012843D12348006802
:1015B00040F01000214908600846006820F0030050
:1015C00008600846006840F0020008601A48406859
:1015D000194948600846406848600846406840F439
:1015E000806048600846406820F47C1048600846E7
:1015F000406840F4E81048600846006840F0807099
:10160000086000BF0C48006800F000700028F9D0A6
:101610000948406820F003000749486008464068D0
:1016200040F00200486000BF0348406800F00C0032
:101630000828F9D10CBD0000001002400020024033
:101640007047000010B51348006840F001001149D0
:10165000086008464068104908400E49486008463E
:1016600000680E4908400B4908600846006820F4ED
:10167000802008600846406820F4FE0048604FF46F
:101680001F008860FFF768FF4FF0006004490860A2
:1016900010BD0000001002400000FFF8FFFFF6FE42
:1016A00008ED00E010B50121880700F02BF840B1EB
:1016B0000121880700F014F802480078401C014915
:1016C000087010BD3C00002021B1028842F0800269
:1016D000028004E002884FF67F731A400280704750
:1016E000CA430282704721B1028842F0010202809F
:1016F00004E002884FF6FE731A40028070470146EC
:10170000888C704730B50246002000230024158ADB
:1017100005EA0103958905EA010413B10CB1012022
:1017200000E0002030BD1AB183890B43838102E0C1
:1017300083898B438381704770B500240022002386
:10174000058C4FF6FE7635400584028C8388048B29
:101750004FF68F752C40B51E2C400D882C43751EFE
:101760002A400D892A434D882A43144DA8420BD0A4
:10177000134DA84208D0134DA84205D0124DA842DF
:1017800002D0124DA84213D14FF6F7752A404D8969
:101790002A434FF6FB752A408D882A434FF6FF6592
:1017A0002B404FF6FF552B408D892B43CD892B4382
:1017B00083800483CD888586028470BD002C01401F
:1017C0000034014000400140004401400048014015
:1017D0000A460021018B4FF6F7731940114301832C
:1017E0007047000070B5002400220023058C4FF6DE
:1017F000EF7635400584028C8388048B48F6FF75AC
:101800002C404FF6FF452C400D884FF6FF7606EA38
:1018100005252C434FF6DF752A400D8906EA05158C
:101820002A434D8806EA05152A43154DA84202D0E1
:10183000144DA8421DD14FF67F752A404D894FF6B1
:10184000FF7606EA05152A434FF6BF752A408D88B4
:1018500006EA05152A434FF6FF352B404FF2FF7578
:101860002B408D8906EA85052B43CD8906EA85053F
:101870002B4383800483CD880587028470BD0000DC
:10188000002C0140003401400A460021018B4FF238
:10189000FF7319404FF6FF7303EA022319430183D4
:1018A0007047000070B5002400220023058C4FF61D
:1018B000FF6635400584028C8388848B4FF68F75D4
:1018C0002C404FF6FC752C400D882C434FF6FF55ED
:1018D0002A400D894FF6FF7606EA05252A434D88F2
:1018E00006EA05252A43154DA84202D0144DA84208
:1018F0001DD14FF2FF752A404D894FF6FF7606EA5B
:1019000005252A434FF6FF352A408D8806EA05252E
:101910002A434EF6FF752B404DF6FF752B408D89FF
:1019200006EA05152B43CD8906EA05152B4383806E
:101930008483CD888587028470BD0000002C01401F
:10194000003401400A460021818B4FF6F77319409D
:10195000114381837047000070B5002200230024EA
:10196000058C4EF6FF7635400584038C8488828B87
:1019700048F6FF752A404FF6FF452A400D884FF67E
:10198000FF7606EA05252A434DF6FF752B400D89A3
:1019900006EA05352B434D8806EA05352B430B4DEA
:1019A000A84202D00A4DA84208D14BF6FF752C4040
:1019B0008D894FF6FF7606EA85152C438480828355
:1019C000CD88A0F84050038470BD0000002C014079
:1019D000003401400A460021818B4FF2FF73194009
:1019E0004FF6FF7303EA0223194381837047818610
:1019F00070470187704781877047A0F84010704793
:101A000081847047002202881D4B98420ED01D4BE6
:101A100098420BD0B0F1804F08D01B4B984205D0B4
:101A20001A4B984202D01A4B984204D14FF68F734A
:101A30001A404B881A43174B984207D0164B9842CE
:101A400004D04FF6FF431A40CB881A4302808B889C
:101A500083850B8803850A4B98420BD0094B98422B
:101A600008D00E4B984205D00D4B984202D00D4B3A
:101A7000984201D10B7A03860123838270470000CC
:101A8000002C0140003401400004004000080040E8
:101A9000000C0040001000400014004000400140D5
:101AA00000440140004801401FB501210846FFF7EE
:101AB00051FC40F2E730ADF808004720ADF80400D3
:101AC0000020ADF80A00ADF8060001A94FF08040F3
:101AD000FFF798FF012241218807FFF724FE1C2011
:101AE0008DF8000000208DF8010003208DF8020021
:101AF00001208DF803006846FFF73EFB1FBD000084
:101B000010B540F22551094800F0C7F801280CD162
:101B1000064800F08BF90649087001200549087055
:101B200040F22551014800F09DF810BD00380140F9
:101B3000350000203600002010B540F2255119482C
:101B400000F0B8F8012813D140F22551154800F0F3
:101B500089F8144800F06AF9C1B2134890F865207A
:101B600090F86500401C104B83F8650018468154BE
:101B700040F224410B4800F09DF801280ED10020CE
:101B8000094991F86510084A5054114681F86500DA
:101B9000012081F86400034800F048F9FEF7F6FDE3
:101BA00010BD0000004800404400002010B586B081
:101BB000044601218804FFF7CDFB01210820FFF72F
:101BC000D9FB4FF48060ADF8100018208DF8130099
:101BD00003208DF8120004A92048FFF73DF94FF4C7
:101BE0000060ADF8100004208DF8130003208DF87C
:101BF000120004A91948FFF72FF927208DF81400C7
:101C000002208DF815008DF8160001208DF81700C0
:101C100005A8FFF7B1FA012240F22551104800F063
:101C200073F8012240F224410D4800F06DF8009451
:101C30000C20ADF80A000020ADF80400ADF8060055
:101C4000ADF80800ADF80C006946054800F082F8D0
:101C50000121034800F015F806B010BD000C01404A
:101C60000048004010B50022002340F66A14A1424B
:101C700000D100BF0A1201249440A3B2DC430480C7
:101C800010BD21B1828942F40052828104E0828930
:101C90004DF6FF731A408281704702460020B1F56D
:101CA000007F00D100BF13880B400BB1012000E082
:101CB0000020704770B50246002400230025002054
:101CC00040F66A16B14200D100BFC1F3421501F0DF
:101CD0001F03012606FA03F3012D02D19689334032
:101CE00006E0022D02D1168A334001E0968A334085
:101CF0000C12012606FA04F41688344013B10CB114
:101D0000012000E0002070BDF0B50346002400264D
:101D10000025002040F66A17B94200D100BF1846DE
:101D2000C1F3421401F01F06012707FA06F5012C42
:101D300001D10C3004E0022C01D1103000E014304D
:101D40001AB107682F43076002E00768AF430760D6
:101D5000F0BD00002DE9F04786B005460E46002490
:101D6000A24600BFA1460027B08900B100BF2F46A0
:101D70002C8A4CF6FF700440F08804432C82AC8916
:101D80004EF6F3100440B088318908437189084346
:101D90000443AC81AC8A4FF6FF400440B089044351
:101DA000AC8201A8FFF7F6FA1F48874202D1DDF89E
:101DB00010A001E0DDF80CA0A88900F4004040B1BB
:101DC0000AEBCA0000EB0A1031684900B0FBF1F8D9
:101DD00007E00AEBCA0000EB0A1031688900B0FB8B
:101DE000F1F86420B8FBF0F004012009642101FB44
:101DF0001089A88900F4004040B1322000EBC900EE
:101E0000B0FBF1F000F00700044308E0322000EBE3
:101E100009106421B0FBF1F000F00F0004432C81A5
:101E200006B0BDE8F0870000003801400146888810
:101E3000C0F308007047C1F30802828070470000B9
:101E400010B500F071F8044621460EA000F09AF893
:101E5000282C0FDAFEF73CFD4FF4FA714620FEF70E
:101E60003FFD4FF4FA714620FEF770FD00F05CF87C
:101E7000044605E001214620FEF77BFDFEF720FD2C
:101E800010BD0000B2E2B5BDB5C4BEE0C0EBD6B532
:101E9000CEAAA3BA25640D0A000000001FB50121D7
:101EA0000920FFF767FA4FF40040ADF80C0010204E
:101EB0008DF80F0003208DF80E0003A91948FEF7D6
:101EC000CBFF4FF48040ADF80C0028208DF80F00B8
:101ED00003208DF80E0003A91248FEF7BDFF0E2166
:101EE0000120FEF799FF4FF48040019000208DF80B
:101EF000080008208DF8090001208DF80A0001A8CB
:101F0000FEF740FF28208DF8000002208DF8010028
:101F10008DF8020001208DF803006846FFF72CF9C8
:101F20001FBD0000000C014070B54FF400410D488A
:101F3000FFF728F81420FEF73AFE4FF40041094855
:101F4000FFF71EF808480068FEF789F904462246A4
:101F50000B4606A000F016F803480068FEF766F985
:101F600070BD0000000C01403800002064697374EB
:101F7000616E63652025663A636D0D0A00000000FE
:101F800000BFFEE70FB4054B10B503A9044A029841
:101F900000F0DAF810BC5DF814FB00004F280008D0
:101FA0004000002002E008C8121F08C1002AFAD130
:101FB00070477047002001E001C1121F002AFBD1C9
:101FC000704700002DE9FF5F82B00021DDE9043099
:101FD000020DDDF840B0034318D044F61050A2F2D1
:101FE000FF3242431514119801281FD0A5EB0B00B6
:101FF000401C5FEA000A4FF000064E4FDFF83891B0
:10200000B046504615D5CAF1000413E011980124DA
:102010004AA3012801D16FEA0B010298119AC0E985
:102020000031C0E9024206B0BDE8F09FCBF10000EC
:10203000DFE704460021404A491842EB0450CDE94D
:10204000001012E0E00707D032463B4640464946C2
:10205000FEF7B6FA8046894632463B461046194698
:10206000FEF7AEFA06460F466410002CEAD1DDE911
:102070000401DDE90023BAF1000F06DAFEF7A0FA49
:1020800042464B46FEF79CFA05E0FEF75BF84246F7
:102090004B46FEF757F804460E460022284BFEF743
:1020A00019FB03D84FF0FF30014607E00022254B13
:1020B00020463146FEF7DDF9FEF7F4FA102409E078
:1020C000002C0ADB0A220023FEF70EF9039B3032B4
:1020D0001A55641E50EA0102F2D1641C039AC4F13D
:1020E00011031444119A012A03D0012208430DD18F
:1020F0000AE0084304D000204FF0110B119072E762
:10210000A3EB0B056D1E0DE05B4504DD4FF00002F7
:1021100005F1010504E003DA4FF00002A5F1010525
:10212000002AECD002981199C0E90231C0E90045BB
:1021300079E70000000014400000F03F300000008C
:102140000000F0430000E03F2DE9FF4F95B09A46B4
:10215000884606460025EEE1252877D1002427464B
:10216000F94A0121039400E0044316F8013F203BA3
:1021700001FA03F01042F7D130782A2811D06FF01D
:102180002F033078A0F13002092A16D8039A44F0C0
:10219000020402EB820203EB42021044761C03901D
:1021A000EFE758F8042B0392002A03DA504244F474
:1021B0000054039044F00204761C30782E2816D187
:1021C00016F8010F44F004042A280DD06FF02F02F6
:1021D0003078A0F13003092B09D807EB870302EB15
:1021E0004303C718761CF3E758F8047B761C307855
:1021F0006C280FD006DC4C2817D068280DD06A2830
:1022000014D104E0742810D07A280FD10DE044F4E2
:1022100000140AE044F4801401E044F4401472789D
:10222000824202D104F58014761C761C3078662830
:102230000BD013DC582877D009DC002875D045284E
:10224000F6D04628F4D047281AD193E118E0632845
:1022500035D0642879D0652812D18BE1702873D0ED
:1022600008DC6728F1D069286FD06E280DD06F2860
:1022700006D1ACE073282CD0752874D0782853D0C0
:102280005246179990476D1C54E1C4F3025002283E
:1022900009D003280DD0D8F8001004280DD00D6007
:1022A00008F1040846E1D8F80010EA17C1E9005225
:1022B000F6E7D8F800100D80F2E70D70F0E718F897
:1022C000041B8DF8001000208DF80100EB46012062
:1022D00003E058F804BB4FF0FF3061074FF00001F6
:1022E00002D40DE009F101018946B9420FDA8145B6
:1022F000F8DB1BF809100029F4D108E009F101010D
:1023000089468142FADB1BF809100029F6D10398AF
:102310005346A0EB090721463846179A00F080FA89
:10232000284400EB090507E044E008E10DE01BF854
:10233000010B524617999047B9F10109F7D253465C
:1023400021463846179AF2E039E00A21C4F30252D6
:102350004FF0000B0091022A06D058F8040BC11769
:10236000032A09D00AE023E008F1070020F0070261
:10237000F2E80201904605E000B2C117042A01D13B
:1023800040B2C117002906DA0A460021404261EB3B
:1023900002012D2202E0220504D52B228DF8042013
:1023A000012203E0E20701D02022F7E7914657E03F
:1023B0000A2100E010214FF0000B00910BE01021EA
:1023C0004FF0000B44F004040827009103E00820BC
:1023D0004FF0000B0090C4F30252022A05D058F8C7
:1023E000040B0021032A08D008E008F1070020F0C0
:1023F0000702F2E80201904603E080B2042A00D10D
:10240000C0B24FF0000922072AD53278702A07D0CF
:10241000DDF800C08CF0100C5CEA0B0C05D00EE06F
:1024200040228DF80420012208E050EA010306D082
:1024300030238DF804308DF8052002229146009B50
:1024400083F0080353EA0B030AD150EA010201D1D9
:10245000620705D530228DF804204FF001097F1E58
:102460003278582A04D039A20C920CAA02920BE0BE
:102470003BA2F9E75B46009AFDF736FF0C9B9B5C9D
:10248000029A521E0292137050EA0102F2D102988F
:1024900004A9081A00F1200B600702D524F4803447
:1024A00000E001275F4502DDA7EB0B0000E0002004
:1024B00000EB0B01009003984944401A0390E0039D
:1024C00006D453462146179A039800F0A9F905440B
:1024D000002706E001A85246C05D179990476D1C81
:1024E0007F1C4F45F6DBE0030CD553462146179A77
:1024F000039800F095F9054404E0302052461799FE
:1025000090476D1C0099481E00900029F5DC08E0FA
:102510000298029952460078491C029117999047F7
:102520006D1CBBF10001ABF1010BF1DC5BE100F0D4
:1025300065F90544761C307800287FF40DAE19B09B
:102540002846BDE8F08F0000092801003031323301
:1025500034353637383961626364656600000000DF
:1025600030313233343536373839414243444546C9
:1025700000000000600700D4062708F1070020F0E3
:102580000700F0E80223804603F0004C5FEA0C00ED
:1025900001D097A009E0200501D596A005E0E0074D
:1025A00001D095A001E0AFF24C001390307823F0F9
:1025B000004365280CD006DC452809D046281DD0EC
:1025C00047287FD13BE0662818D067287AD136E0CB
:1025D0000021112F01DB112000E0781CCDE9000162
:1025E00004A90CA8FFF7EEFCDDE90D010C9A4FF0F1
:1025F000000B07F10109109200914EE04FF00040EE
:102600000097CDE9011004A90CA8FFF7DBFCDDE978
:102610000D020C9B0F994FF0000B91461093009206
:1026200011B9791C00EB0109B7EB090003D4C0F123
:10263000FF3B07F10109A9EB0700019042E0012FE0
:1026400000DA01270021112F01DD112000E03846BA
:10265000CDE9000104A90CA8FFF7B4FCDDE90D01E8
:102660000C9A00914FF0000BB946109221070FD43D
:10267000009A4A4503DA914601E0A9F10109B9F14E
:10268000010F05DD109AA9F10101515C3029F4D048
:10269000B84202DA10F1040F03DA0121CDE901108A
:1026A00010E0002803DC8344A9EB000102E0411C98
:1026B000494500DD8946A0EB0B00401C01904FF01E
:1026C00000400290200705D40198484502DB4FF0F6
:1026D000FF30019000208DF84B0002980DF14B0760
:1026E000B0F1004F25D002200C902B200D900298C5
:1026F00000280CDA404202902D200D9007E00A21BC
:102700000298FDF7DBFD3031029007F8011D0C99AE
:10271000481E0C900029F2DC02980028EFD1791EA7
:102720000D980870307800F0200040F0450007F860
:10273000020D11A8C01BC01D02901398007800B1B3
:10274000012000EB0901019801EBE07102980144BE
:102750000398401A401E0390E00306D453462146D6
:10276000179A039800F05CF805441398007818B1A4
:102770005246179990476D1CE00323D553462146D6
:10278000179A039800F04CF805441BE0BBF1000FCA
:1027900007DB0098584504DD1098179910F80B00D6
:1027A00001E0179930205246904701980BF1010B38
:1027B000401E05F10105019004D12E2052461799C3
:1027C00090476D1CB9F10001A9F10109DEDC05E0BB
:1027D00017F8010B5246179990476D1C0299481E35
:1027E00002900029F4DC53462146179A03989EE68E
:1027F0002D0000002B000000200000002DE9F0411A
:10280000044600251E461746880404D405E03946D0
:102810002020B0476D1C641EF9D52846BDE8F08124
:102820002DE9F041044600251E469046C80301D517
:10283000302700E02027880404D505E041463846CB
:10284000B0476D1C641EF9D52846BDE8F08170B50F
:1028500004460D46E0B2FEF76FFE204670BD000054
:10286000FEF75DF8FEF74AFCFEF75EFCFEF7FEFBA6
:10287000FEF712FCFEF7C0FBFEF702FE4FF4165007
:10288000FFF794F9FEF706F8FFF70EF9FFF706FBDE
:102890004FF4A060FEF7A8FC63E03248006820F423
:1028A0008070304908600846006820F48040086065
:1028B000002240F225512C48FFF726FAFEF702FCD1
:1028C000012804D129480078401C2849087027486D
:1028D0000078032806D12348006840F4807021491D
:1028E000086014E021480078042806D1012240F253
:1028F00025511D48FFF708FA09E01C480078052813
:1029000005D11848006840F480401649086017480F
:102910000078052802DD012014490870134800786A
:1029200006281CD2DFE800F01B03090D1115012059
:10293000FEF754F9FEF770F812E00220FEF74EF9A8
:102940000EE00320FEF74AF90AE00420FEF746F9FC
:1029500006E00520FEF742F9FFF772FA00E000BF3B
:1029600000BF9AE700040140004800403D000020FD
:10297000902900080000002044000000A41F000867
:10298000D4290008440000206C040000B41F000893
:102990000000000001020304010203040607080905
:1029A00002040608C0F9A4B0999282F88090010050
:1029B0000200040008001000200040008000000019
:1029C0000000000000000000000000000001000006
:0429D0000000000003
:04000005080000ED02
:00000001FF
